:020000040800F2
:1000000000000320FD060008490700084907000812
:1000100049070008490700084907000800000000D8
:100020000000000000000000000000004907000878
:10003000490700080000000049070008790500088A
:100040004907000849070008490700084907000850
:100050004907000849070008490700084907000840
:100060004907000849070008490700084907000830
:100070004907000849070008490700084907000820
:100080004907000849070008490700084907000810
:100090004907000849070008490700084907000800
:1000A00049070008490700084907000849070008F0
:1000B0004907000805060008490700084907000825
:1000C00049070008490700084907000849070008D0
:1000D00049070008490700084907000849070008C0
:1000E000D10500084907000849070008490700082A
:1000F00049070008490700084907000849070008A0
:10010000490700084907000849070008490700088F
:10011000490700084907000849070008490700087F
:10012000490700084907000849070008490700086F
:10013000490700084907000849070008490700085F
:10014000490700084907000849070008490700084F
:10015000490700084907000849070008490700083F
:10016000490700084907000849070008490700082F
:100170004907000849070008490700080000000077
:10018000490700084907000849070008490700080F
:1001900049070008490700084907000849070008FF
:0C01A0004907000849070008490700084B
:1001AC000348044B834202D0034B03B118477047FA
:1001BC000800002008000020000000000548064B45
:1001CC001B1AD90F01EBA301491002D0034B03B149
:1001DC0018477047080000200800002000000000AD
:1001EC0010B5064C237843B9FFF7DAFF044B13B173
:1001FC000448AFF300800123237010BD08000020D9
:10020C00000000009407000808B5054B1BB1054918
:10021C000548AFF30080BDE80840FFF7CFBF00BF33
:10022C00000000000C0000209407000808B500F046
:10023C0039F800F057F800F0D5F800F03BF900F071
:10024C006DF900F04BFA064BD3ED007A77EEA77AF6
:10025C00FDEEE77A17EE900A00F0FAF9F3E700BF2B
:10026C000000002000B500F00700C0F1070CBCF145
:10027C00040F28BF4FF0040C031D062B0FD9C31E0F
:10028C004FF0FF3E0EFA0CF021EA000199400EFAF5
:10029C0003FE22EA0E0241EA02005DF804FB002391
:1002AC00EEE700004FF0E0231A6922F001021A6118
:1002BC001A6942F002021A611A6942F004021A61C8
:1002CC005A6902F07F4206490A435A619A6902F060
:1002DC007F420A439A611A6942F001021A6170471F
:1002EC001FBF02003D4A136823F0F80343F080035C
:1002FC00136000239360394B9B6813F00C0FFAD1F9
:10030C00364A136823F080731360344B1B6813F068
:10031C00007FFAD1314A136823F4102313602F4B5A
:10032C001B6813F4003FFAD12C4B1A6822F480227C
:10033C001A601A6842F480321A60284B1B6813F456
:10034C00003FFAD0254B1A6822F480221A601A68F2
:10035C0042F400221A6000225A605A6842F4800269
:10036C005A605A6822F03F0242F004025A605A68FE
:10037C006FF38E1242F434525A605A6822F44032AF
:10038C005A601A6842F080721A60144B1B6813F0A2
:10039C00007FFAD1114B9A6822F0030242F002025C
:1003AC009A609A6822F0F0029A609A6822F4E052FD
:1003BC009A609A6822F460429A609A6842F060529D
:1003CC009A609A6822F040429A60054A136823F0BA
:1003DC000F0343F005031360704700BF0038024061
:1003EC00003C0240324B1A6B42F002021A631A6B49
:1003FC0042F004021A631A6B42F001021A63A3F56D
:10040C0050531A6844F201010A431A605A6822F0E8
:10041C0081025A609A680A439A605A6942F08102D2
:10042C005A619A6942F401029A611A6842F0805248
:10043C001A605A6822F480425A609A6842F08052DC
:10044C009A605A6942F480425A619A6942F0804239
:10045C009A6103F580631A6822F080621A60DA6888
:10046C0042F00062DA601A6842F400221A605A689C
:10047C0022F400725A609A6842F440229A60DA6858
:10048C0022F44022DA605A6A22F0F0025A62A3F592
:10049C0000631A6842F400521A609A6842F480525F
:1004AC009A601A6A22F0706242F000721A62704707
:1004BC000038024008B5154A536C43F4804353642A
:1004CC00A2F58032536923F0F00343F0200353610B
:1004DC000F4B1A6842F400521A609A6842F40052A8
:1004EC009A60DA6822F40052DA600A4BD86800226B
:1004FC001146C0F30220FFF7B5FE0001C0B2064B57
:10050C0083F828034FF480725A6008BD003802400B
:10051C00003C014000ED00E000E100E0114A136CEA
:10052C0043F002031364104B00229A6240F26712EC
:10053C00DA621A6842F001021A60DA6842F00202CA
:10054C00DA609A6922F003029A619A6942F03002E9
:10055C009A611A6A42F001021A621A6A42F00202A5
:10056C001A6270470038024000040040074A1388A2
:10057C0001331380064B1B781BB1064A13880133D9
:10058C001380054BDA6A054B1A8070472400002053
:10059C00280000202C000020000400402A0000202D
:1005AC00064B01221A70064B1B888342FBDB00238F
:1005BC00034A1380014A1370704700BF28000020C3
:1005CC002C000020094A536943F400535361084B33
:1005DC001B88642B09D9074A13780133DBB21370DB
:1005EC00042B02D9134600221A707047003C0140BC
:1005FC002C00002027000020074B1B6913F0020F72
:10060C0004D0054A136923F002031361034A1378DB
:10061C0001331370704700BF000400402600002017
:10062C0084B0074B0093074B0193074B0293DFED0C
:10063C00077ACDED037A87EE800A04B0704700BFCD
:10064C0050A92B4D0024F44800004842FFD58349A3
:10065C0038B505461C4B1A781C4B1B681344834257
:10066C0023DC90FBF2F21A4B1A70002419E0642080
:10067C00FFF796FF174A13881349097811FA83F389
:10068C009BB2138013889BB200EE103AB8EE400A6E
:10069C00FFF7C6FFBCEEC00A0F4B83ED0B0A01340B
:1006AC00E4B20B4B1B78A342E1D807EE905AB8EE9C
:1006BC00E70AFFF7B5FFBCEEC00A074B83ED0B0A48
:1006CC00024B1D6038BD00BF040000203400002028
:1006DC00300000202E00002000040040034AD2F815
:1006EC00883043F47003C2F88830704700ED00E0A6
:1006FC00DFF830D00C480D490D4A002302E0D458E5
:10070C00C4500433C4188C42F9D30A4A0A4C00234F
:10071C0001E013600432A242FBD300F011F8FFF7A2
:10072C0085FD704700000320000000200800002019
:10073C00B40700080800002038000020FEE7000085
:10074C0070B50D4D0D4C641BA4100026A64209D1AA
:10075C000B4D0C4C00F018F8641BA4100026A6429C
:10076C0005D170BD55F8043B98470136EEE755F8B6
:10077C00043B98470136F2E7AC070008AC070008C9
:10078C00AC070008B0070008F8B500BFF8BC08BCFF
:10079C009E467047F8B500BFF8BC08BC9E46704733
:0407AC00150200082A
:0407B000ED0100084F
:0807B400000070423400000057
:04000005080006FDEC
:00000001FF
